{
  "contractName": "Voting",
  "abi": [
    {
      "inputs": [],
      "stateMutability": "nonpayable",
      "type": "constructor"
    },
    {
      "anonymous": false,
      "inputs": [
        {
          "indexed": true,
          "internalType": "address",
          "name": "previousOwner",
          "type": "address"
        },
        {
          "indexed": true,
          "internalType": "address",
          "name": "newOwner",
          "type": "address"
        }
      ],
      "name": "OwnershipTransferred",
      "type": "event"
    },
    {
      "anonymous": false,
      "inputs": [
        {
          "indexed": false,
          "internalType": "uint256",
          "name": "proposalId",
          "type": "uint256"
        }
      ],
      "name": "ProposalRegistered",
      "type": "event"
    },
    {
      "anonymous": false,
      "inputs": [
        {
          "indexed": false,
          "internalType": "address",
          "name": "voter",
          "type": "address"
        },
        {
          "indexed": false,
          "internalType": "uint256",
          "name": "proposalId",
          "type": "uint256"
        }
      ],
      "name": "Voted",
      "type": "event"
    },
    {
      "anonymous": false,
      "inputs": [
        {
          "indexed": false,
          "internalType": "address",
          "name": "voterAddress",
          "type": "address"
        }
      ],
      "name": "VoterRegistered",
      "type": "event"
    },
    {
      "anonymous": false,
      "inputs": [
        {
          "indexed": false,
          "internalType": "enum Voting.WorkflowStatus",
          "name": "previousStatus",
          "type": "uint8"
        },
        {
          "indexed": false,
          "internalType": "enum Voting.WorkflowStatus",
          "name": "newStatus",
          "type": "uint8"
        }
      ],
      "name": "WorkflowStatusChange",
      "type": "event"
    },
    {
      "inputs": [
        {
          "internalType": "address",
          "name": "",
          "type": "address"
        }
      ],
      "name": "_whitelist",
      "outputs": [
        {
          "internalType": "bool",
          "name": "isRegistered",
          "type": "bool"
        },
        {
          "internalType": "bool",
          "name": "hasVoted",
          "type": "bool"
        },
        {
          "internalType": "uint256",
          "name": "votedProposalId",
          "type": "uint256"
        }
      ],
      "stateMutability": "view",
      "type": "function"
    },
    {
      "inputs": [],
      "name": "owner",
      "outputs": [
        {
          "internalType": "address",
          "name": "",
          "type": "address"
        }
      ],
      "stateMutability": "view",
      "type": "function"
    },
    {
      "inputs": [
        {
          "internalType": "uint256",
          "name": "",
          "type": "uint256"
        }
      ],
      "name": "proposalList",
      "outputs": [
        {
          "internalType": "string",
          "name": "description",
          "type": "string"
        },
        {
          "internalType": "uint256",
          "name": "voteCount",
          "type": "uint256"
        }
      ],
      "stateMutability": "view",
      "type": "function"
    },
    {
      "inputs": [],
      "name": "renounceOwnership",
      "outputs": [],
      "stateMutability": "nonpayable",
      "type": "function"
    },
    {
      "inputs": [],
      "name": "status",
      "outputs": [
        {
          "internalType": "enum Voting.WorkflowStatus",
          "name": "",
          "type": "uint8"
        }
      ],
      "stateMutability": "view",
      "type": "function"
    },
    {
      "inputs": [
        {
          "internalType": "address",
          "name": "newOwner",
          "type": "address"
        }
      ],
      "name": "transferOwnership",
      "outputs": [],
      "stateMutability": "nonpayable",
      "type": "function"
    },
    {
      "inputs": [],
      "name": "winningProposalId",
      "outputs": [
        {
          "internalType": "uint256",
          "name": "",
          "type": "uint256"
        }
      ],
      "stateMutability": "view",
      "type": "function"
    },
    {
      "inputs": [
        {
          "internalType": "address",
          "name": "_address",
          "type": "address"
        }
      ],
      "name": "whitelist",
      "outputs": [],
      "stateMutability": "nonpayable",
      "type": "function"
    },
    {
      "inputs": [],
      "name": "startProposalsRegistration",
      "outputs": [],
      "stateMutability": "nonpayable",
      "type": "function"
    },
    {
      "inputs": [],
      "name": "stopProposalsRegistration",
      "outputs": [],
      "stateMutability": "nonpayable",
      "type": "function"
    },
    {
      "inputs": [],
      "name": "startVotingSession",
      "outputs": [],
      "stateMutability": "nonpayable",
      "type": "function"
    },
    {
      "inputs": [],
      "name": "stopVotingSession",
      "outputs": [],
      "stateMutability": "nonpayable",
      "type": "function"
    },
    {
      "inputs": [],
      "name": "tallyVotes",
      "outputs": [],
      "stateMutability": "nonpayable",
      "type": "function"
    },
    {
      "inputs": [],
      "name": "getWinner",
      "outputs": [
        {
          "internalType": "string",
          "name": "",
          "type": "string"
        }
      ],
      "stateMutability": "view",
      "type": "function"
    },
    {
      "inputs": [
        {
          "internalType": "string",
          "name": "_description",
          "type": "string"
        }
      ],
      "name": "proposal",
      "outputs": [],
      "stateMutability": "nonpayable",
      "type": "function"
    },
    {
      "inputs": [
        {
          "internalType": "uint256",
          "name": "_proposalId",
          "type": "uint256"
        }
      ],
      "name": "vote",
      "outputs": [],
      "stateMutability": "nonpayable",
      "type": "function"
    }
  ],
  "bytecode": "0x60806040523480156200001157600080fd5b5062000032620000266200006660201b60201c565b6200006e60201b60201c565b6000600460006101000a81548160ff021916908360058111156200005b576200005a62000132565b5b021790555062000161565b600033905090565b60008060009054906101000a900473ffffffffffffffffffffffffffffffffffffffff169050816000806101000a81548173ffffffffffffffffffffffffffffffffffffffff021916908373ffffffffffffffffffffffffffffffffffffffff1602179055508173ffffffffffffffffffffffffffffffffffffffff168173ffffffffffffffffffffffffffffffffffffffff167f8be0079c531659141344cd1fd0a4f28419497f9722a3daafe3b4186f6b6457e060405160405180910390a35050565b7f4e487b7100000000000000000000000000000000000000000000000000000000600052602160045260246000fd5b6120a480620001716000396000f3fe608060405234801561001057600080fd5b50600436106101005760003560e01c8063948adda011610097578063cfdb63ac11610066578063cfdb63ac1461022a578063e09b8c791461025c578063ee74c67814610266578063f2fde38b1461027057610100565b8063948adda0146101a35780639b19251a146101bf578063c6311e3f146101db578063c64963c51461020c57610100565b806353302887116100d35780635330288714610153578063715018a61461015d5780638da5cb5b146101675780638e7ea5b21461018557610100565b80630121b93f1461010557806317a0ad8e14610121578063200d2ed21461012b578063378a217814610149575b600080fd5b61011f600480360381019061011a919061154b565b61028c565b005b61012961058e565b005b610133610693565b60405161014091906115ef565b60405180910390f35b6101516106a6565b005b61015b610857565b005b61016561095d565b005b61016f6109e5565b60405161017c919061164b565b60405180910390f35b61018d610a0e565b60405161019a91906116ff565b60405180910390f35b6101bd60048036038101906101b89190611856565b610b3a565b005b6101d960048036038101906101d491906118cb565b610cfc565b005b6101f560048036038101906101f0919061154b565b610f6e565b604051610203929190611907565b60405180910390f35b61021461102a565b6040516102219190611937565b60405180910390f35b610244600480360381019061023f91906118cb565b611030565b6040516102539392919061196d565b60405180910390f35b610264611074565b005b61026e61117a565b005b61028a600480360381019061028591906118cb565b611280565b005b600360003373ffffffffffffffffffffffffffffffffffffffff1673ffffffffffffffffffffffffffffffffffffffff16815260200190815260200160002060000160009054906101000a900460ff1661031b576040517f08c379a000000000000000000000000000000000000000000000000000000000815260040161031290611a16565b60405180910390fd5b600360003373ffffffffffffffffffffffffffffffffffffffff1673ffffffffffffffffffffffffffffffffffffffff16815260200190815260200160002060000160019054906101000a900460ff16156103ab576040517f08c379a00000000000000000000000000000000000000000000000000000000081526004016103a290611a82565b60405180910390fd5b600360058111156103bf576103be611578565b5b600460009054906101000a900460ff1660058111156103e1576103e0611578565b5b14610421576040517f08c379a000000000000000000000000000000000000000000000000000000000815260040161041890611aee565b60405180910390fd5b60016002805490506104339190611b3d565b811115610475576040517f08c379a000000000000000000000000000000000000000000000000000000000815260040161046c90611bbd565b60405180910390fd5b6001600360003373ffffffffffffffffffffffffffffffffffffffff1673ffffffffffffffffffffffffffffffffffffffff16815260200190815260200160002060000160016101000a81548160ff02191690831515021790555080600360003373ffffffffffffffffffffffffffffffffffffffff1673ffffffffffffffffffffffffffffffffffffffff168152602001908152602001600020600101819055506002818154811061052b5761052a611bdd565b5b9060005260206000209060020201600101600081548092919061054d90611c0c565b91905055507f4d99b957a2bc29a30ebd96a7be8e68fe50a3c701db28a91436490b7d53870ca43382604051610583929190611c55565b60405180910390a150565b610596611378565b73ffffffffffffffffffffffffffffffffffffffff166105b46109e5565b73ffffffffffffffffffffffffffffffffffffffff161461060a576040517f08c379a000000000000000000000000000000000000000000000000000000000815260040161060190611cca565b60405180910390fd5b6000600460009054906101000a900460ff16905060048060006101000a81548160ff0219169083600581111561064357610642611578565b5b02179055507f0a97a4ee45751e2abf3e4fc8946939630b11b371ea8ae39ccdc3056e98f5cc3f81600460009054906101000a900460ff16604051610688929190611cea565b60405180910390a150565b600460009054906101000a900460ff1681565b6106ae611378565b73ffffffffffffffffffffffffffffffffffffffff166106cc6109e5565b73ffffffffffffffffffffffffffffffffffffffff1614610722576040517f08c379a000000000000000000000000000000000000000000000000000000000815260040161071990611cca565b60405180910390fd5b60006002805490501161076a576040517f08c379a000000000000000000000000000000000000000000000000000000000815260040161076190611d5f565b60405180910390fd5b6000600460009054906101000a900460ff16905060008060018190555060005b6002805490508110156107df5781600282815481106107ac576107ab611bdd565b5b90600052602060002090600202016001015411156107cc57806001819055505b80806107d790611c0c565b91505061078a565b506005600460006101000a81548160ff0219169083600581111561080657610805611578565b5b02179055507f0a97a4ee45751e2abf3e4fc8946939630b11b371ea8ae39ccdc3056e98f5cc3f82600460009054906101000a900460ff1660405161084b929190611cea565b60405180910390a15050565b61085f611378565b73ffffffffffffffffffffffffffffffffffffffff1661087d6109e5565b73ffffffffffffffffffffffffffffffffffffffff16146108d3576040517f08c379a00000000000000000000000000000000000000000000000000000000081526004016108ca90611cca565b60405180910390fd5b6000600460009054906101000a900460ff1690506002600460006101000a81548160ff0219169083600581111561090d5761090c611578565b5b02179055507f0a97a4ee45751e2abf3e4fc8946939630b11b371ea8ae39ccdc3056e98f5cc3f81600460009054906101000a900460ff16604051610952929190611cea565b60405180910390a150565b610965611378565b73ffffffffffffffffffffffffffffffffffffffff166109836109e5565b73ffffffffffffffffffffffffffffffffffffffff16146109d9576040517f08c379a00000000000000000000000000000000000000000000000000000000081526004016109d090611cca565b60405180910390fd5b6109e36000611380565b565b60008060009054906101000a900473ffffffffffffffffffffffffffffffffffffffff16905090565b6060600580811115610a2357610a22611578565b5b600460009054906101000a900460ff166005811115610a4557610a44611578565b5b14610a85576040517f08c379a0000000000000000000000000000000000000000000000000000000008152600401610a7c90611dcb565b60405180910390fd5b600260015481548110610a9b57610a9a611bdd565b5b90600052602060002090600202016000018054610ab790611e1a565b80601f0160208091040260200160405190810160405280929190818152602001828054610ae390611e1a565b8015610b305780601f10610b0557610100808354040283529160200191610b30565b820191906000526020600020905b815481529060010190602001808311610b1357829003601f168201915b5050505050905090565b600360003373ffffffffffffffffffffffffffffffffffffffff1673ffffffffffffffffffffffffffffffffffffffff16815260200190815260200160002060000160009054906101000a900460ff16610bc9576040517f08c379a0000000000000000000000000000000000000000000000000000000008152600401610bc090611a16565b60405180910390fd5b60016005811115610bdd57610bdc611578565b5b600460009054906101000a900460ff166005811115610bff57610bfe611578565b5b14610c3f576040517f08c379a0000000000000000000000000000000000000000000000000000000008152600401610c3690611ebe565b60405180910390fd5b610c47611444565b818160000181905250600081602001818152505060028190806001815401808255809150506001900390600052602060002090600202016000909190919091506000820151816000019080519060200190610ca392919061145e565b506020820151816001015550507f92e393e9b54e2f801d3ea4beb0c5e71a21cc34a5d34b77d0fb8a3aa1650dc18f6001600280549050610ce39190611b3d565b604051610cf09190611937565b60405180910390a15050565b610d04611378565b73ffffffffffffffffffffffffffffffffffffffff16610d226109e5565b73ffffffffffffffffffffffffffffffffffffffff1614610d78576040517f08c379a0000000000000000000000000000000000000000000000000000000008152600401610d6f90611cca565b60405180910390fd5b60006005811115610d8c57610d8b611578565b5b600460009054906101000a900460ff166005811115610dae57610dad611578565b5b14610dee576040517f08c379a0000000000000000000000000000000000000000000000000000000008152600401610de590611f2a565b60405180910390fd5b600360008273ffffffffffffffffffffffffffffffffffffffff1673ffffffffffffffffffffffffffffffffffffffff16815260200190815260200160002060000160009054906101000a900460ff1615610e7e576040517f08c379a0000000000000000000000000000000000000000000000000000000008152600401610e7590611fbc565b60405180910390fd5b6001600360008373ffffffffffffffffffffffffffffffffffffffff1673ffffffffffffffffffffffffffffffffffffffff16815260200190815260200160002060000160006101000a81548160ff0219169083151502179055506000600360003373ffffffffffffffffffffffffffffffffffffffff1673ffffffffffffffffffffffffffffffffffffffff16815260200190815260200160002060000160016101000a81548160ff0219169083151502179055507fb6be2187d059cc2a55fe29e0e503b566e1e0f8c8780096e185429350acffd3dd81604051610f63919061164b565b60405180910390a150565b60028181548110610f7e57600080fd5b9060005260206000209060020201600091509050806000018054610fa190611e1a565b80601f0160208091040260200160405190810160405280929190818152602001828054610fcd90611e1a565b801561101a5780601f10610fef5761010080835404028352916020019161101a565b820191906000526020600020905b815481529060010190602001808311610ffd57829003601f168201915b5050505050908060010154905082565b60015481565b60036020528060005260406000206000915090508060000160009054906101000a900460ff16908060000160019054906101000a900460ff16908060010154905083565b61107c611378565b73ffffffffffffffffffffffffffffffffffffffff1661109a6109e5565b73ffffffffffffffffffffffffffffffffffffffff16146110f0576040517f08c379a00000000000000000000000000000000000000000000000000000000081526004016110e790611cca565b60405180910390fd5b6000600460009054906101000a900460ff1690506001600460006101000a81548160ff0219169083600581111561112a57611129611578565b5b02179055507f0a97a4ee45751e2abf3e4fc8946939630b11b371ea8ae39ccdc3056e98f5cc3f81600460009054906101000a900460ff1660405161116f929190611cea565b60405180910390a150565b611182611378565b73ffffffffffffffffffffffffffffffffffffffff166111a06109e5565b73ffffffffffffffffffffffffffffffffffffffff16146111f6576040517f08c379a00000000000000000000000000000000000000000000000000000000081526004016111ed90611cca565b60405180910390fd5b6000600460009054906101000a900460ff1690506003600460006101000a81548160ff021916908360058111156112305761122f611578565b5b02179055507f0a97a4ee45751e2abf3e4fc8946939630b11b371ea8ae39ccdc3056e98f5cc3f81600460009054906101000a900460ff16604051611275929190611cea565b60405180910390a150565b611288611378565b73ffffffffffffffffffffffffffffffffffffffff166112a66109e5565b73ffffffffffffffffffffffffffffffffffffffff16146112fc576040517f08c379a00000000000000000000000000000000000000000000000000000000081526004016112f390611cca565b60405180910390fd5b600073ffffffffffffffffffffffffffffffffffffffff168173ffffffffffffffffffffffffffffffffffffffff16141561136c576040517f08c379a00000000000000000000000000000000000000000000000000000000081526004016113639061204e565b60405180910390fd5b61137581611380565b50565b600033905090565b60008060009054906101000a900473ffffffffffffffffffffffffffffffffffffffff169050816000806101000a81548173ffffffffffffffffffffffffffffffffffffffff021916908373ffffffffffffffffffffffffffffffffffffffff1602179055508173ffffffffffffffffffffffffffffffffffffffff168173ffffffffffffffffffffffffffffffffffffffff167f8be0079c531659141344cd1fd0a4f28419497f9722a3daafe3b4186f6b6457e060405160405180910390a35050565b604051806040016040528060608152602001600081525090565b82805461146a90611e1a565b90600052602060002090601f01602090048101928261148c57600085556114d3565b82601f106114a557805160ff19168380011785556114d3565b828001600101855582156114d3579182015b828111156114d25782518255916020019190600101906114b7565b5b5090506114e091906114e4565b5090565b5b808211156114fd5760008160009055506001016114e5565b5090565b6000604051905090565b600080fd5b600080fd5b6000819050919050565b61152881611515565b811461153357600080fd5b50565b6000813590506115458161151f565b92915050565b6000602082840312156115615761156061150b565b5b600061156f84828501611536565b91505092915050565b7f4e487b7100000000000000000000000000000000000000000000000000000000600052602160045260246000fd5b600681106115b8576115b7611578565b5b50565b60008190506115c9826115a7565b919050565b60006115d9826115bb565b9050919050565b6115e9816115ce565b82525050565b600060208201905061160460008301846115e0565b92915050565b600073ffffffffffffffffffffffffffffffffffffffff82169050919050565b60006116358261160a565b9050919050565b6116458161162a565b82525050565b6000602082019050611660600083018461163c565b92915050565b600081519050919050565b600082825260208201905092915050565b60005b838110156116a0578082015181840152602081019050611685565b838111156116af576000848401525b50505050565b6000601f19601f8301169050919050565b60006116d182611666565b6116db8185611671565b93506116eb818560208601611682565b6116f4816116b5565b840191505092915050565b6000602082019050818103600083015261171981846116c6565b905092915050565b600080fd5b600080fd5b7f4e487b7100000000000000000000000000000000000000000000000000000000600052604160045260246000fd5b611763826116b5565b810181811067ffffffffffffffff821117156117825761178161172b565b5b80604052505050565b6000611795611501565b90506117a1828261175a565b919050565b600067ffffffffffffffff8211156117c1576117c061172b565b5b6117ca826116b5565b9050602081019050919050565b82818337600083830152505050565b60006117f96117f4846117a6565b61178b565b90508281526020810184848401111561181557611814611726565b5b6118208482856117d7565b509392505050565b600082601f83011261183d5761183c611721565b5b813561184d8482602086016117e6565b91505092915050565b60006020828403121561186c5761186b61150b565b5b600082013567ffffffffffffffff81111561188a57611889611510565b5b61189684828501611828565b91505092915050565b6118a88161162a565b81146118b357600080fd5b50565b6000813590506118c58161189f565b92915050565b6000602082840312156118e1576118e061150b565b5b60006118ef848285016118b6565b91505092915050565b61190181611515565b82525050565b6000604082019050818103600083015261192181856116c6565b905061193060208301846118f8565b9392505050565b600060208201905061194c60008301846118f8565b92915050565b60008115159050919050565b61196781611952565b82525050565b6000606082019050611982600083018661195e565b61198f602083018561195e565b61199c60408301846118f8565b949350505050565b7f546869732061646472657373206973206e6f742077686974656c69737465642060008201527f2100000000000000000000000000000000000000000000000000000000000000602082015250565b6000611a00602183611671565b9150611a0b826119a4565b604082019050919050565b60006020820190508181036000830152611a2f816119f3565b9050919050565b7f596f7520616c726561647920766f746564202100000000000000000000000000600082015250565b6000611a6c601383611671565b9150611a7782611a36565b602082019050919050565b60006020820190508181036000830152611a9b81611a5f565b9050919050565b7f54686520766f74696e672073657373696f6e206973206e6f74206f70656e2021600082015250565b6000611ad8602083611671565b9150611ae382611aa2565b602082019050919050565b60006020820190508181036000830152611b0781611acb565b9050919050565b7f4e487b7100000000000000000000000000000000000000000000000000000000600052601160045260246000fd5b6000611b4882611515565b9150611b5383611515565b925082821015611b6657611b65611b0e565b5b828203905092915050565b7f546869732070726f706f73616c20646f65736e27742065786973742021000000600082015250565b6000611ba7601d83611671565b9150611bb282611b71565b602082019050919050565b60006020820190508181036000830152611bd681611b9a565b9050919050565b7f4e487b7100000000000000000000000000000000000000000000000000000000600052603260045260246000fd5b6000611c1782611515565b91507fffffffffffffffffffffffffffffffffffffffffffffffffffffffffffffffff821415611c4a57611c49611b0e565b5b600182019050919050565b6000604082019050611c6a600083018561163c565b611c7760208301846118f8565b9392505050565b7f4f776e61626c653a2063616c6c6572206973206e6f7420746865206f776e6572600082015250565b6000611cb4602083611671565b9150611cbf82611c7e565b602082019050919050565b60006020820190508181036000830152611ce381611ca7565b9050919050565b6000604082019050611cff60008301856115e0565b611d0c60208301846115e0565b9392505050565b7f4e6f2070726f706f73616c20666f72207468697320766f746520210000000000600082015250565b6000611d49601b83611671565b9150611d5482611d13565b602082019050919050565b60006020820190508181036000830152611d7881611d3c565b9050919050565b7f566f74696e67206e6f742066696e697368202100000000000000000000000000600082015250565b6000611db5601383611671565b9150611dc082611d7f565b602082019050919050565b60006020820190508181036000830152611de481611da8565b9050919050565b7f4e487b7100000000000000000000000000000000000000000000000000000000600052602260045260246000fd5b60006002820490506001821680611e3257607f821691505b60208210811415611e4657611e45611deb565b5b50919050565b7f5468652070726f706f73616c2073657373696f6e206973206e6f74206f70656e60008201527f2021000000000000000000000000000000000000000000000000000000000000602082015250565b6000611ea8602283611671565b9150611eb382611e4c565b604082019050919050565b60006020820190508181036000830152611ed781611e9b565b9050919050565b7f54686520726567697374726174696f6e206973206e6f74206f70656e20210000600082015250565b6000611f14601e83611671565b9150611f1f82611ede565b602082019050919050565b60006020820190508181036000830152611f4381611f07565b9050919050565b7f54686973206164647265737320697320616c72656164792077686974656c697360008201527f7465642021000000000000000000000000000000000000000000000000000000602082015250565b6000611fa6602583611671565b9150611fb182611f4a565b604082019050919050565b60006020820190508181036000830152611fd581611f99565b9050919050565b7f4f776e61626c653a206e6577206f776e657220697320746865207a65726f206160008201527f6464726573730000000000000000000000000000000000000000000000000000602082015250565b6000612038602683611671565b915061204382611fdc565b604082019050919050565b600060208201905081810360008301526120678161202b565b905091905056fea2646970667358221220cfd5e73cfb8230c8fba694bfa0916b1116454ceeeb7b07fbae0420ac48f937ce64736f6c634300080a0033",
  "immutableReferences": {},
  "source": "// SPDX-License-Identifier: GPL-3.0\r\npragma solidity 0.8.10;\r\n\r\nimport \"@openzeppelin/contracts/access/Ownable.sol\";\r\n\r\ncontract Voting is Ownable{\r\n    uint256 public winningProposalId;\r\n\r\n    struct Voter {\r\n        bool isRegistered;\r\n        bool hasVoted;\r\n        uint votedProposalId;\r\n    }\r\n    struct Proposal {\r\n        string description;\r\n        uint voteCount;\r\n    }\r\n    Proposal[] public proposalList;\r\n    mapping(address=> Voter) public _whitelist;\r\n\r\n    enum WorkflowStatus {\r\n        RegisteringVoters,\r\n        ProposalsRegistrationStarted,\r\n        ProposalsRegistrationEnded,\r\n        VotingSessionStarted,\r\n        VotingSessionEnded,\r\n        VotesTallied\r\n    }\r\n    WorkflowStatus public status;\r\n\r\n    event VoterRegistered(address voterAddress); \r\n    event WorkflowStatusChange(WorkflowStatus previousStatus, WorkflowStatus newStatus);\r\n    event ProposalRegistered(uint proposalId);\r\n    event Voted (address voter, uint proposalId);\r\n\r\n    constructor() {\r\n        status = WorkflowStatus.RegisteringVoters;\r\n    }\r\n\r\n    function whitelist(address _address) public onlyOwner {\r\n        require(status == WorkflowStatus.RegisteringVoters, \"The registration is not open !\");\r\n        require(!_whitelist[_address].isRegistered, \"This address is already whitelisted !\");\r\n        _whitelist[_address].isRegistered = true;\r\n        _whitelist[msg.sender].hasVoted = false;\r\n        emit VoterRegistered(_address);\r\n    }\r\n\r\n    function startProposalsRegistration() public onlyOwner {\r\n        WorkflowStatus previousStatus = status;\r\n        status = WorkflowStatus.ProposalsRegistrationStarted;\r\n        emit WorkflowStatusChange(previousStatus, status);\r\n    }\r\n    function stopProposalsRegistration() public onlyOwner {\r\n        WorkflowStatus previousStatus = status;\r\n        status = WorkflowStatus.ProposalsRegistrationEnded;\r\n        emit WorkflowStatusChange(previousStatus, status);\r\n    }\r\n    function startVotingSession() public onlyOwner {\r\n        WorkflowStatus previousStatus = status;\r\n        status = WorkflowStatus.VotingSessionStarted;\r\n        emit WorkflowStatusChange(previousStatus, status);\r\n    }\r\n    function stopVotingSession() public onlyOwner {\r\n        WorkflowStatus previousStatus = status;\r\n        status = WorkflowStatus.VotingSessionEnded;\r\n        emit WorkflowStatusChange(previousStatus, status);\r\n    }\r\n    function tallyVotes() public onlyOwner {\r\n        require(proposalList.length > 0, \"No proposal for this vote !\");\r\n        WorkflowStatus previousStatus = status;\r\n        uint previousVoteCount = 0;\r\n        winningProposalId = 0;\r\n        for (uint i=0; i<proposalList.length; i++) {\r\n        if (proposalList[i].voteCount > previousVoteCount) {\r\n                winningProposalId = i;\r\n            }\r\n        }\r\n        status = WorkflowStatus.VotesTallied;\r\n        emit WorkflowStatusChange(previousStatus, status);\r\n    }\r\n\r\n    function getWinner() public view returns(string memory) {\r\n        require(status == WorkflowStatus.VotesTallied, \"Voting not finish !\");\r\n        return proposalList[winningProposalId].description;\r\n    }\r\n    \r\n    function proposal(string memory _description) public {\r\n        require(_whitelist[msg.sender].isRegistered, \"This address is not whitelisted !\");\r\n        require(status == WorkflowStatus.ProposalsRegistrationStarted, \"The proposal session is not open !\");\r\n        Proposal memory newProposal;\r\n        newProposal.description = _description;\r\n        newProposal.voteCount = 0;\r\n        proposalList.push(newProposal);\r\n        emit ProposalRegistered(proposalList.length-1);\r\n    }\r\n\r\n    function vote(uint _proposalId) public {\r\n        require(_whitelist[msg.sender].isRegistered, \"This address is not whitelisted !\");\r\n        require(!_whitelist[msg.sender].hasVoted, \"You already voted !\");\r\n        require(status == WorkflowStatus.VotingSessionStarted, \"The voting session is not open !\");\r\n        require(_proposalId <= (proposalList.length-1), \"This proposal doesn't exist !\");\r\n        _whitelist[msg.sender].hasVoted = true;\r\n        _whitelist[msg.sender].votedProposalId = _proposalId;\r\n        proposalList[_proposalId].voteCount++;\r\n        emit Voted(msg.sender, _proposalId);\r\n    }\r\n}\r\n",
  "sourcePath": "C:\\Users\\geoff\\Documents\\Projets\\Developpeur-Ethereum-Template\\4. Truffle & CI-CD\\voting\\contracts\\Voting.sol",
  "compiler": {
    "name": "solc",
    "version": "0.8.10+commit.fc410830.Emscripten.clang"
  },
  "schemaVersion": "3.4.3",
  "updatedAt": "2022-01-24T11:52:14.411Z",
  "devdoc": {
    "kind": "dev",
    "methods": {
      "owner()": {
        "details": "Returns the address of the current owner."
      },
      "renounceOwnership()": {
        "details": "Leaves the contract without owner. It will not be possible to call `onlyOwner` functions anymore. Can only be called by the current owner. NOTE: Renouncing ownership will leave the contract without an owner, thereby removing any functionality that is only available to the owner."
      },
      "transferOwnership(address)": {
        "details": "Transfers ownership of the contract to a new account (`newOwner`). Can only be called by the current owner."
      }
    },
    "version": 1
  },
  "userdoc": {
    "kind": "user",
    "methods": {},
    "version": 1
  }
}