{
  "contractName": "Voting",
  "abi": [
    {
      "anonymous": false,
      "inputs": [
        {
          "indexed": true,
          "internalType": "address",
          "name": "previousOwner",
          "type": "address"
        },
        {
          "indexed": true,
          "internalType": "address",
          "name": "newOwner",
          "type": "address"
        }
      ],
      "name": "OwnershipTransferred",
      "type": "event"
    },
    {
      "anonymous": false,
      "inputs": [
        {
          "indexed": false,
          "internalType": "uint256",
          "name": "proposalId",
          "type": "uint256"
        }
      ],
      "name": "ProposalRegistered",
      "type": "event"
    },
    {
      "anonymous": false,
      "inputs": [
        {
          "indexed": false,
          "internalType": "address",
          "name": "voter",
          "type": "address"
        },
        {
          "indexed": false,
          "internalType": "uint256",
          "name": "proposalId",
          "type": "uint256"
        }
      ],
      "name": "Voted",
      "type": "event"
    },
    {
      "anonymous": false,
      "inputs": [
        {
          "indexed": false,
          "internalType": "address",
          "name": "voterAddress",
          "type": "address"
        }
      ],
      "name": "VoterRegistered",
      "type": "event"
    },
    {
      "anonymous": false,
      "inputs": [
        {
          "indexed": false,
          "internalType": "enum Voting.WorkflowStatus",
          "name": "previousStatus",
          "type": "uint8"
        },
        {
          "indexed": false,
          "internalType": "enum Voting.WorkflowStatus",
          "name": "newStatus",
          "type": "uint8"
        }
      ],
      "name": "WorkflowStatusChange",
      "type": "event"
    },
    {
      "inputs": [],
      "name": "owner",
      "outputs": [
        {
          "internalType": "address",
          "name": "",
          "type": "address"
        }
      ],
      "stateMutability": "view",
      "type": "function",
      "constant": true
    },
    {
      "inputs": [
        {
          "internalType": "uint256",
          "name": "",
          "type": "uint256"
        }
      ],
      "name": "proposalList",
      "outputs": [
        {
          "internalType": "string",
          "name": "description",
          "type": "string"
        },
        {
          "internalType": "uint256",
          "name": "voteCount",
          "type": "uint256"
        }
      ],
      "stateMutability": "view",
      "type": "function",
      "constant": true
    },
    {
      "inputs": [],
      "name": "renounceOwnership",
      "outputs": [],
      "stateMutability": "nonpayable",
      "type": "function"
    },
    {
      "inputs": [],
      "name": "status",
      "outputs": [
        {
          "internalType": "enum Voting.WorkflowStatus",
          "name": "",
          "type": "uint8"
        }
      ],
      "stateMutability": "view",
      "type": "function",
      "constant": true
    },
    {
      "inputs": [
        {
          "internalType": "address",
          "name": "newOwner",
          "type": "address"
        }
      ],
      "name": "transferOwnership",
      "outputs": [],
      "stateMutability": "nonpayable",
      "type": "function"
    },
    {
      "inputs": [
        {
          "internalType": "address",
          "name": "",
          "type": "address"
        }
      ],
      "name": "whitelist",
      "outputs": [
        {
          "internalType": "bool",
          "name": "isRegistered",
          "type": "bool"
        },
        {
          "internalType": "bool",
          "name": "hasVoted",
          "type": "bool"
        },
        {
          "internalType": "uint256",
          "name": "votedProposalId",
          "type": "uint256"
        }
      ],
      "stateMutability": "view",
      "type": "function",
      "constant": true
    },
    {
      "inputs": [],
      "name": "winningProposalId",
      "outputs": [
        {
          "internalType": "uint256",
          "name": "",
          "type": "uint256"
        }
      ],
      "stateMutability": "view",
      "type": "function",
      "constant": true
    },
    {
      "inputs": [
        {
          "internalType": "address",
          "name": "_address",
          "type": "address"
        }
      ],
      "name": "whitelistVoter",
      "outputs": [],
      "stateMutability": "nonpayable",
      "type": "function"
    },
    {
      "inputs": [],
      "name": "checkWhitelist",
      "outputs": [
        {
          "internalType": "bool",
          "name": "",
          "type": "bool"
        }
      ],
      "stateMutability": "view",
      "type": "function",
      "constant": true
    },
    {
      "inputs": [],
      "name": "startProposalsRegistration",
      "outputs": [],
      "stateMutability": "nonpayable",
      "type": "function"
    },
    {
      "inputs": [],
      "name": "stopProposalsRegistration",
      "outputs": [],
      "stateMutability": "nonpayable",
      "type": "function"
    },
    {
      "inputs": [],
      "name": "startVotingSession",
      "outputs": [],
      "stateMutability": "nonpayable",
      "type": "function"
    },
    {
      "inputs": [],
      "name": "stopVotingSession",
      "outputs": [],
      "stateMutability": "nonpayable",
      "type": "function"
    },
    {
      "inputs": [],
      "name": "votesTallied",
      "outputs": [],
      "stateMutability": "nonpayable",
      "type": "function"
    },
    {
      "inputs": [
        {
          "internalType": "string",
          "name": "_description",
          "type": "string"
        }
      ],
      "name": "proposal",
      "outputs": [],
      "stateMutability": "nonpayable",
      "type": "function"
    },
    {
      "inputs": [],
      "name": "getProposalList",
      "outputs": [
        {
          "components": [
            {
              "internalType": "string",
              "name": "description",
              "type": "string"
            },
            {
              "internalType": "uint256",
              "name": "voteCount",
              "type": "uint256"
            }
          ],
          "internalType": "struct Voting.Proposal[]",
          "name": "",
          "type": "tuple[]"
        }
      ],
      "stateMutability": "view",
      "type": "function",
      "constant": true
    },
    {
      "inputs": [
        {
          "internalType": "uint256",
          "name": "_proposalId",
          "type": "uint256"
        }
      ],
      "name": "vote",
      "outputs": [],
      "stateMutability": "nonpayable",
      "type": "function"
    },
    {
      "inputs": [],
      "name": "getWinner",
      "outputs": [
        {
          "internalType": "string",
          "name": "",
          "type": "string"
        }
      ],
      "stateMutability": "view",
      "type": "function",
      "constant": true
    }
  ],
  "bytecode": "0x60806040526000600460006101000a81548160ff021916908360058111156200002d576200002c62000144565b5b02179055503480156200003f57600080fd5b50620000726200005d62000078640100000000026401000000009004565b62000080640100000000026401000000009004565b62000173565b600033905090565b60008060009054906101000a900473ffffffffffffffffffffffffffffffffffffffff169050816000806101000a81548173ffffffffffffffffffffffffffffffffffffffff021916908373ffffffffffffffffffffffffffffffffffffffff1602179055508173ffffffffffffffffffffffffffffffffffffffff168173ffffffffffffffffffffffffffffffffffffffff167f8be0079c531659141344cd1fd0a4f28419497f9722a3daafe3b4186f6b6457e060405160405180910390a35050565b7f4e487b7100000000000000000000000000000000000000000000000000000000600052602160045260246000fd5b61254180620001836000396000f3fe608060405234801561001057600080fd5b5060043610610133576000357c010000000000000000000000000000000000000000000000000000000090048063948adda0116100bf578063c6311e3f1161008e578063c6311e3f1461027c578063c64963c5146102ad578063e09b8c79146102cb578063ee74c678146102d5578063f2fde38b146102df57610133565b8063948adda0146102085780639b19251a14610224578063ada7415f14610256578063bddf1ce91461026057610133565b8063346750f311610106578063346750f31461019a57806353302887146101b8578063715018a6146101c25780638da5cb5b146101cc5780638e7ea5b2146101ea57610133565b80630121b93f1461013857806306f2057a1461015457806317a0ad8e14610172578063200d2ed21461017c575b600080fd5b610152600480360381019061014d9190611853565b6102fb565b005b61015c610661565b604051610169919061189b565b60405180910390f35b61017a6106b8565b005b61018461081f565b604051610191919061192d565b60405180910390f35b6101a2610832565b6040516101af9190611aef565b60405180910390f35b6101c061092d565b005b6101ca610a95565b005b6101d4610b1d565b6040516101e19190611b52565b60405180910390f35b6101f2610b46565b6040516101ff9190611bb7565b60405180910390f35b610222600480360381019061021d9190611d0e565b610c72565b005b61023e60048036038101906102399190611d83565b610e34565b60405161024d93929190611dbf565b60405180910390f35b61025e610e78565b005b61027a60048036038101906102759190611d83565b610fdf565b005b61029660048036038101906102919190611853565b6111f6565b6040516102a4929190611df6565b60405180910390f35b6102b56112b2565b6040516102c29190611e26565b60405180910390f35b6102d36112b8565b005b6102dd611420565b005b6102f960048036038101906102f49190611d83565b611588565b005b600360003373ffffffffffffffffffffffffffffffffffffffff1673ffffffffffffffffffffffffffffffffffffffff16815260200190815260200160002060000160009054906101000a900460ff1661038a576040517f08c379a000000000000000000000000000000000000000000000000000000000815260040161038190611eb3565b60405180910390fd5b600360003373ffffffffffffffffffffffffffffffffffffffff1673ffffffffffffffffffffffffffffffffffffffff16815260200190815260200160002060000160019054906101000a900460ff161561041a576040517f08c379a000000000000000000000000000000000000000000000000000000000815260040161041190611f1f565b60405180910390fd5b6003600581111561042e5761042d6118b6565b5b600460009054906101000a900460ff1660058111156104505761044f6118b6565b5b14610490576040517f08c379a000000000000000000000000000000000000000000000000000000000815260040161048790611f8b565b60405180910390fd5b60016002805490506104a29190611fda565b8111156104e4576040517f08c379a00000000000000000000000000000000000000000000000000000000081526004016104db9061205a565b60405180910390fd5b6001600360003373ffffffffffffffffffffffffffffffffffffffff1673ffffffffffffffffffffffffffffffffffffffff16815260200190815260200160002060000160016101000a81548160ff02191690831515021790555080600360003373ffffffffffffffffffffffffffffffffffffffff1673ffffffffffffffffffffffffffffffffffffffff168152602001908152602001600020600101819055506002818154811061059a5761059961207a565b5b906000526020600020906002020160010160008154809291906105bc906120a9565b919050555060006001819055506002600154815481106105df576105de61207a565b5b906000526020600020906002020160010154600282815481106106055761060461207a565b5b906000526020600020906002020160010154111561062557806001819055505b7f4d99b957a2bc29a30ebd96a7be8e68fe50a3c701db28a91436490b7d53870ca433826040516106569291906120f2565b60405180910390a150565b6000600360003373ffffffffffffffffffffffffffffffffffffffff1673ffffffffffffffffffffffffffffffffffffffff16815260200190815260200160002060000160009054906101000a900460ff16905090565b6106c0611680565b73ffffffffffffffffffffffffffffffffffffffff166106de610b1d565b73ffffffffffffffffffffffffffffffffffffffff1614610734576040517f08c379a000000000000000000000000000000000000000000000000000000000815260040161072b90612167565b60405180910390fd5b60036005811115610748576107476118b6565b5b600460009054906101000a900460ff16600581111561076a576107696118b6565b5b146107aa576040517f08c379a00000000000000000000000000000000000000000000000000000000081526004016107a1906121d3565b60405180910390fd5b60048060006101000a81548160ff021916908360058111156107cf576107ce6118b6565b5b02179055507f0a97a4ee45751e2abf3e4fc8946939630b11b371ea8ae39ccdc3056e98f5cc3f6003600460009054906101000a900460ff166040516108159291906121f3565b60405180910390a1565b600460009054906101000a900460ff1681565b60606002805480602002602001604051908101604052809291908181526020016000905b8282101561092457838290600052602060002090600202016040518060400160405290816000820180546108899061224b565b80601f01602080910402602001604051908101604052809291908181526020018280546108b59061224b565b80156109025780601f106108d757610100808354040283529160200191610902565b820191906000526020600020905b8154815290600101906020018083116108e557829003601f168201915b5050505050815260200160018201548152505081526020019060010190610856565b50505050905090565b610935611680565b73ffffffffffffffffffffffffffffffffffffffff16610953610b1d565b73ffffffffffffffffffffffffffffffffffffffff16146109a9576040517f08c379a00000000000000000000000000000000000000000000000000000000081526004016109a090612167565b60405180910390fd5b600160058111156109bd576109bc6118b6565b5b600460009054906101000a900460ff1660058111156109df576109de6118b6565b5b14610a1f576040517f08c379a0000000000000000000000000000000000000000000000000000000008152600401610a16906121d3565b60405180910390fd5b6002600460006101000a81548160ff02191690836005811115610a4557610a446118b6565b5b02179055507f0a97a4ee45751e2abf3e4fc8946939630b11b371ea8ae39ccdc3056e98f5cc3f6001600460009054906101000a900460ff16604051610a8b9291906121f3565b60405180910390a1565b610a9d611680565b73ffffffffffffffffffffffffffffffffffffffff16610abb610b1d565b73ffffffffffffffffffffffffffffffffffffffff1614610b11576040517f08c379a0000000000000000000000000000000000000000000000000000000008152600401610b0890612167565b60405180910390fd5b610b1b6000611688565b565b60008060009054906101000a900473ffffffffffffffffffffffffffffffffffffffff16905090565b6060600580811115610b5b57610b5a6118b6565b5b600460009054906101000a900460ff166005811115610b7d57610b7c6118b6565b5b14610bbd576040517f08c379a0000000000000000000000000000000000000000000000000000000008152600401610bb4906122c9565b60405180910390fd5b600260015481548110610bd357610bd261207a565b5b90600052602060002090600202016000018054610bef9061224b565b80601f0160208091040260200160405190810160405280929190818152602001828054610c1b9061224b565b8015610c685780601f10610c3d57610100808354040283529160200191610c68565b820191906000526020600020905b815481529060010190602001808311610c4b57829003601f168201915b5050505050905090565b600360003373ffffffffffffffffffffffffffffffffffffffff1673ffffffffffffffffffffffffffffffffffffffff16815260200190815260200160002060000160009054906101000a900460ff16610d01576040517f08c379a0000000000000000000000000000000000000000000000000000000008152600401610cf890611eb3565b60405180910390fd5b60016005811115610d1557610d146118b6565b5b600460009054906101000a900460ff166005811115610d3757610d366118b6565b5b14610d77576040517f08c379a0000000000000000000000000000000000000000000000000000000008152600401610d6e9061235b565b60405180910390fd5b610d7f61174c565b818160000181905250600081602001818152505060028190806001815401808255809150506001900390600052602060002090600202016000909190919091506000820151816000019080519060200190610ddb929190611766565b506020820151816001015550507f92e393e9b54e2f801d3ea4beb0c5e71a21cc34a5d34b77d0fb8a3aa1650dc18f6001600280549050610e1b9190611fda565b604051610e289190611e26565b60405180910390a15050565b60036020528060005260406000206000915090508060000160009054906101000a900460ff16908060000160019054906101000a900460ff16908060010154905083565b610e80611680565b73ffffffffffffffffffffffffffffffffffffffff16610e9e610b1d565b73ffffffffffffffffffffffffffffffffffffffff1614610ef4576040517f08c379a0000000000000000000000000000000000000000000000000000000008152600401610eeb90612167565b60405180910390fd5b60046005811115610f0857610f076118b6565b5b600460009054906101000a900460ff166005811115610f2a57610f296118b6565b5b14610f6a576040517f08c379a0000000000000000000000000000000000000000000000000000000008152600401610f61906121d3565b60405180910390fd5b6005600460006101000a81548160ff02191690836005811115610f9057610f8f6118b6565b5b02179055507f0a97a4ee45751e2abf3e4fc8946939630b11b371ea8ae39ccdc3056e98f5cc3f60048060009054906101000a900460ff16604051610fd59291906121f3565b60405180910390a1565b610fe7611680565b73ffffffffffffffffffffffffffffffffffffffff16611005610b1d565b73ffffffffffffffffffffffffffffffffffffffff161461105b576040517f08c379a000000000000000000000000000000000000000000000000000000000815260040161105290612167565b60405180910390fd5b6000600581111561106f5761106e6118b6565b5b600460009054906101000a900460ff166005811115611091576110906118b6565b5b146110d1576040517f08c379a00000000000000000000000000000000000000000000000000000000081526004016110c8906123c7565b60405180910390fd5b600360008273ffffffffffffffffffffffffffffffffffffffff1673ffffffffffffffffffffffffffffffffffffffff16815260200190815260200160002060000160009054906101000a900460ff1615611161576040517f08c379a000000000000000000000000000000000000000000000000000000000815260040161115890612459565b60405180910390fd5b6001600360008373ffffffffffffffffffffffffffffffffffffffff1673ffffffffffffffffffffffffffffffffffffffff16815260200190815260200160002060000160006101000a81548160ff0219169083151502179055507fb6be2187d059cc2a55fe29e0e503b566e1e0f8c8780096e185429350acffd3dd816040516111eb9190611b52565b60405180910390a150565b6002818154811061120657600080fd5b90600052602060002090600202016000915090508060000180546112299061224b565b80601f01602080910402602001604051908101604052809291908181526020018280546112559061224b565b80156112a25780601f10611277576101008083540402835291602001916112a2565b820191906000526020600020905b81548152906001019060200180831161128557829003601f168201915b5050505050908060010154905082565b60015481565b6112c0611680565b73ffffffffffffffffffffffffffffffffffffffff166112de610b1d565b73ffffffffffffffffffffffffffffffffffffffff1614611334576040517f08c379a000000000000000000000000000000000000000000000000000000000815260040161132b90612167565b60405180910390fd5b60006005811115611348576113476118b6565b5b600460009054906101000a900460ff16600581111561136a576113696118b6565b5b146113aa576040517f08c379a00000000000000000000000000000000000000000000000000000000081526004016113a1906121d3565b60405180910390fd5b6001600460006101000a81548160ff021916908360058111156113d0576113cf6118b6565b5b02179055507f0a97a4ee45751e2abf3e4fc8946939630b11b371ea8ae39ccdc3056e98f5cc3f6000600460009054906101000a900460ff166040516114169291906121f3565b60405180910390a1565b611428611680565b73ffffffffffffffffffffffffffffffffffffffff16611446610b1d565b73ffffffffffffffffffffffffffffffffffffffff161461149c576040517f08c379a000000000000000000000000000000000000000000000000000000000815260040161149390612167565b60405180910390fd5b600260058111156114b0576114af6118b6565b5b600460009054906101000a900460ff1660058111156114d2576114d16118b6565b5b14611512576040517f08c379a0000000000000000000000000000000000000000000000000000000008152600401611509906121d3565b60405180910390fd5b6003600460006101000a81548160ff02191690836005811115611538576115376118b6565b5b02179055507f0a97a4ee45751e2abf3e4fc8946939630b11b371ea8ae39ccdc3056e98f5cc3f6002600460009054906101000a900460ff1660405161157e9291906121f3565b60405180910390a1565b611590611680565b73ffffffffffffffffffffffffffffffffffffffff166115ae610b1d565b73ffffffffffffffffffffffffffffffffffffffff1614611604576040517f08c379a00000000000000000000000000000000000000000000000000000000081526004016115fb90612167565b60405180910390fd5b600073ffffffffffffffffffffffffffffffffffffffff168173ffffffffffffffffffffffffffffffffffffffff161415611674576040517f08c379a000000000000000000000000000000000000000000000000000000000815260040161166b906124eb565b60405180910390fd5b61167d81611688565b50565b600033905090565b60008060009054906101000a900473ffffffffffffffffffffffffffffffffffffffff169050816000806101000a81548173ffffffffffffffffffffffffffffffffffffffff021916908373ffffffffffffffffffffffffffffffffffffffff1602179055508173ffffffffffffffffffffffffffffffffffffffff168173ffffffffffffffffffffffffffffffffffffffff167f8be0079c531659141344cd1fd0a4f28419497f9722a3daafe3b4186f6b6457e060405160405180910390a35050565b604051806040016040528060608152602001600081525090565b8280546117729061224b565b90600052602060002090601f01602090048101928261179457600085556117db565b82601f106117ad57805160ff19168380011785556117db565b828001600101855582156117db579182015b828111156117da5782518255916020019190600101906117bf565b5b5090506117e891906117ec565b5090565b5b808211156118055760008160009055506001016117ed565b5090565b6000604051905090565b600080fd5b600080fd5b6000819050919050565b6118308161181d565b811461183b57600080fd5b50565b60008135905061184d81611827565b92915050565b60006020828403121561186957611868611813565b5b60006118778482850161183e565b91505092915050565b60008115159050919050565b61189581611880565b82525050565b60006020820190506118b0600083018461188c565b92915050565b7f4e487b7100000000000000000000000000000000000000000000000000000000600052602160045260246000fd5b600681106118f6576118f56118b6565b5b50565b6000819050611907826118e5565b919050565b6000611917826118f9565b9050919050565b6119278161190c565b82525050565b6000602082019050611942600083018461191e565b92915050565b600081519050919050565b600082825260208201905092915050565b6000819050602082019050919050565b600081519050919050565b600082825260208201905092915050565b60005b838110156119ae578082015181840152602081019050611993565b838111156119bd576000848401525b50505050565b6000601f19601f8301169050919050565b60006119df82611974565b6119e9818561197f565b93506119f9818560208601611990565b611a02816119c3565b840191505092915050565b611a168161181d565b82525050565b60006040830160008301518482036000860152611a3982826119d4565b9150506020830151611a4e6020860182611a0d565b508091505092915050565b6000611a658383611a1c565b905092915050565b6000602082019050919050565b6000611a8582611948565b611a8f8185611953565b935083602082028501611aa185611964565b8060005b85811015611add5784840389528151611abe8582611a59565b9450611ac983611a6d565b925060208a01995050600181019050611aa5565b50829750879550505050505092915050565b60006020820190508181036000830152611b098184611a7a565b905092915050565b600073ffffffffffffffffffffffffffffffffffffffff82169050919050565b6000611b3c82611b11565b9050919050565b611b4c81611b31565b82525050565b6000602082019050611b676000830184611b43565b92915050565b600082825260208201905092915050565b6000611b8982611974565b611b938185611b6d565b9350611ba3818560208601611990565b611bac816119c3565b840191505092915050565b60006020820190508181036000830152611bd18184611b7e565b905092915050565b600080fd5b600080fd5b7f4e487b7100000000000000000000000000000000000000000000000000000000600052604160045260246000fd5b611c1b826119c3565b810181811067ffffffffffffffff82111715611c3a57611c39611be3565b5b80604052505050565b6000611c4d611809565b9050611c598282611c12565b919050565b600067ffffffffffffffff821115611c7957611c78611be3565b5b611c82826119c3565b9050602081019050919050565b82818337600083830152505050565b6000611cb1611cac84611c5e565b611c43565b905082815260208101848484011115611ccd57611ccc611bde565b5b611cd8848285611c8f565b509392505050565b600082601f830112611cf557611cf4611bd9565b5b8135611d05848260208601611c9e565b91505092915050565b600060208284031215611d2457611d23611813565b5b600082013567ffffffffffffffff811115611d4257611d41611818565b5b611d4e84828501611ce0565b91505092915050565b611d6081611b31565b8114611d6b57600080fd5b50565b600081359050611d7d81611d57565b92915050565b600060208284031215611d9957611d98611813565b5b6000611da784828501611d6e565b91505092915050565b611db98161181d565b82525050565b6000606082019050611dd4600083018661188c565b611de1602083018561188c565b611dee6040830184611db0565b949350505050565b60006040820190508181036000830152611e108185611b7e565b9050611e1f6020830184611db0565b9392505050565b6000602082019050611e3b6000830184611db0565b92915050565b7f546869732061646472657373206973206e6f742077686974656c69737465642060008201527f2100000000000000000000000000000000000000000000000000000000000000602082015250565b6000611e9d602183611b6d565b9150611ea882611e41565b604082019050919050565b60006020820190508181036000830152611ecc81611e90565b9050919050565b7f596f7520616c726561647920766f746564202100000000000000000000000000600082015250565b6000611f09601383611b6d565b9150611f1482611ed3565b602082019050919050565b60006020820190508181036000830152611f3881611efc565b9050919050565b7f54686520766f74696e672073657373696f6e206973206e6f74206f70656e2021600082015250565b6000611f75602083611b6d565b9150611f8082611f3f565b602082019050919050565b60006020820190508181036000830152611fa481611f68565b9050919050565b7f4e487b7100000000000000000000000000000000000000000000000000000000600052601160045260246000fd5b6000611fe58261181d565b9150611ff08361181d565b92508282101561200357612002611fab565b5b828203905092915050565b7f546869732070726f706f73616c20646f65736e27742065786973742021000000600082015250565b6000612044601d83611b6d565b915061204f8261200e565b602082019050919050565b6000602082019050818103600083015261207381612037565b9050919050565b7f4e487b7100000000000000000000000000000000000000000000000000000000600052603260045260246000fd5b60006120b48261181d565b91507fffffffffffffffffffffffffffffffffffffffffffffffffffffffffffffffff8214156120e7576120e6611fab565b5b600182019050919050565b60006040820190506121076000830185611b43565b6121146020830184611db0565b9392505050565b7f4f776e61626c653a2063616c6c6572206973206e6f7420746865206f776e6572600082015250565b6000612151602083611b6d565b915061215c8261211b565b602082019050919050565b6000602082019050818103600083015261218081612144565b9050919050565b7f57726f6e672070726576696f7573207374617475730000000000000000000000600082015250565b60006121bd601583611b6d565b91506121c882612187565b602082019050919050565b600060208201905081810360008301526121ec816121b0565b9050919050565b6000604082019050612208600083018561191e565b612215602083018461191e565b9392505050565b7f4e487b7100000000000000000000000000000000000000000000000000000000600052602260045260246000fd5b6000600282049050600182168061226357607f821691505b602082108114156122775761227661221c565b5b50919050565b7f566f74696e67206e6f742066696e697368202100000000000000000000000000600082015250565b60006122b3601383611b6d565b91506122be8261227d565b602082019050919050565b600060208201905081810360008301526122e2816122a6565b9050919050565b7f5468652070726f706f73616c2073657373696f6e206973206e6f74206f70656e60008201527f2021000000000000000000000000000000000000000000000000000000000000602082015250565b6000612345602283611b6d565b9150612350826122e9565b604082019050919050565b6000602082019050818103600083015261237481612338565b9050919050565b7f54686520726567697374726174696f6e206973206e6f74206f70656e20210000600082015250565b60006123b1601e83611b6d565b91506123bc8261237b565b602082019050919050565b600060208201905081810360008301526123e0816123a4565b9050919050565b7f54686973206164647265737320697320616c72656164792077686974656c697360008201527f7465642021000000000000000000000000000000000000000000000000000000602082015250565b6000612443602583611b6d565b915061244e826123e7565b604082019050919050565b6000602082019050818103600083015261247281612436565b9050919050565b7f4f776e61626c653a206e6577206f776e657220697320746865207a65726f206160008201527f6464726573730000000000000000000000000000000000000000000000000000602082015250565b60006124d5602683611b6d565b91506124e082612479565b604082019050919050565b60006020820190508181036000830152612504816124c8565b905091905056fea264697066735822122083c83c0ad90ac3aa9b85e561fdf2d0addfbebd8017ddcc41e499056531d938e064736f6c634300080c0033",
  "immutableReferences": {},
  "source": "// SPDX-License-Identifier: GPL-3.0\r\npragma solidity 0.8.12;\r\n\r\nimport \"./Ownable.sol\";\r\n\r\ncontract Voting is Ownable{\r\n    uint256 public winningProposalId;\r\n\r\n    struct Voter {\r\n        bool isRegistered;\r\n        bool hasVoted;\r\n        uint votedProposalId;\r\n    }\r\n    struct Proposal {\r\n        string description;\r\n        uint voteCount;\r\n    }\r\n    Proposal[] public proposalList;\r\n    mapping(address=> Voter) public whitelist;\r\n\r\n    enum WorkflowStatus {\r\n        RegisteringVoters,\r\n        ProposalsRegistrationStarted,\r\n        ProposalsRegistrationEnded,\r\n        VotingSessionStarted,\r\n        VotingSessionEnded,\r\n        VotesTallied\r\n    }\r\n    WorkflowStatus public status = WorkflowStatus.RegisteringVoters;\r\n\r\n    event VoterRegistered(address voterAddress); \r\n    event WorkflowStatusChange(WorkflowStatus previousStatus, WorkflowStatus newStatus);\r\n    event ProposalRegistered(uint proposalId);\r\n    event Voted (address voter, uint proposalId);\r\n\r\n    function whitelistVoter(address _address) public onlyOwner {\r\n        require(status == WorkflowStatus.RegisteringVoters, \"The registration is not open !\");\r\n        require(!whitelist[_address].isRegistered, \"This address is already whitelisted !\");\r\n        whitelist[_address].isRegistered = true;\r\n        emit VoterRegistered(_address);\r\n    }\r\n\r\n    function checkWhitelist() public view returns(bool){\r\n        return whitelist[msg.sender].isRegistered;\r\n    }\r\n\r\n    function startProposalsRegistration() public onlyOwner {\r\n        require(status == WorkflowStatus.RegisteringVoters, \"Wrong previous status\");\r\n        status = WorkflowStatus.ProposalsRegistrationStarted;\r\n        emit WorkflowStatusChange(WorkflowStatus.RegisteringVoters, status);\r\n    }\r\n    function stopProposalsRegistration() public onlyOwner {\r\n        require(status == WorkflowStatus.ProposalsRegistrationStarted, \"Wrong previous status\");\r\n        status = WorkflowStatus.ProposalsRegistrationEnded;\r\n        emit WorkflowStatusChange(WorkflowStatus.ProposalsRegistrationStarted, status);\r\n    }\r\n    function startVotingSession() public onlyOwner {\r\n        require(status == WorkflowStatus.ProposalsRegistrationEnded, \"Wrong previous status\");\r\n        status = WorkflowStatus.VotingSessionStarted;\r\n        emit WorkflowStatusChange(WorkflowStatus.ProposalsRegistrationEnded, status);\r\n    }\r\n    function stopVotingSession() public onlyOwner {\r\n        require(status == WorkflowStatus.VotingSessionStarted, \"Wrong previous status\");\r\n        status = WorkflowStatus.VotingSessionEnded;\r\n        emit WorkflowStatusChange(WorkflowStatus.VotingSessionStarted, status);\r\n    }\r\n    function votesTallied() public onlyOwner {\r\n        require(status == WorkflowStatus.VotingSessionEnded, \"Wrong previous status\");\r\n        status = WorkflowStatus.VotesTallied;\r\n        emit WorkflowStatusChange(WorkflowStatus.VotingSessionEnded, status);\r\n    }    \r\n    function proposal(string memory _description) public {\r\n        require(whitelist[msg.sender].isRegistered, \"This address is not whitelisted !\");\r\n        require(status == WorkflowStatus.ProposalsRegistrationStarted, \"The proposal session is not open !\");\r\n        Proposal memory newProposal;\r\n        newProposal.description = _description;\r\n        newProposal.voteCount = 0;\r\n        proposalList.push(newProposal);\r\n        emit ProposalRegistered(proposalList.length-1);\r\n    }\r\n\r\n    function getProposalList() public view returns(Proposal[] memory){\r\n        return proposalList;\r\n    }\r\n\r\n    function vote(uint _proposalId) public {\r\n        require(whitelist[msg.sender].isRegistered, \"This address is not whitelisted !\");\r\n        require(!whitelist[msg.sender].hasVoted, \"You already voted !\");\r\n        require(status == WorkflowStatus.VotingSessionStarted, \"The voting session is not open !\");\r\n        require(_proposalId <= (proposalList.length-1), \"This proposal doesn't exist !\");\r\n        whitelist[msg.sender].hasVoted = true;\r\n        whitelist[msg.sender].votedProposalId = _proposalId;\r\n        proposalList[_proposalId].voteCount++;\r\n        winningProposalId = 0;\r\n        if (proposalList[_proposalId].voteCount > proposalList[winningProposalId].voteCount) {\r\n            winningProposalId = _proposalId;\r\n        }\r\n        emit Voted(msg.sender, _proposalId);\r\n    }\r\n\r\n    function getWinner() public view returns(string memory) {\r\n        require(status == WorkflowStatus.VotesTallied, \"Voting not finish !\");\r\n        return proposalList[winningProposalId].description;\r\n    }\r\n}\r\n",
  "sourcePath": "C:\\Users\\Geof\\Documents\\crypto_project\\dappVoting\\contracts\\Voting.sol",
  "compiler": {
    "name": "solc",
    "version": "0.8.12+commit.f00d7308.Emscripten.clang"
  },
  "schemaVersion": "3.4.6",
  "updatedAt": "2022-03-21T11:46:19.832Z",
  "networkType": "ethereum",
  "devdoc": {
    "kind": "dev",
    "methods": {
      "owner()": {
        "details": "Returns the address of the current owner."
      },
      "renounceOwnership()": {
        "details": "Leaves the contract without owner. It will not be possible to call `onlyOwner` functions anymore. Can only be called by the current owner. NOTE: Renouncing ownership will leave the contract without an owner, thereby removing any functionality that is only available to the owner."
      },
      "transferOwnership(address)": {
        "details": "Transfers ownership of the contract to a new account (`newOwner`). Can only be called by the current owner."
      }
    },
    "version": 1
  },
  "userdoc": {
    "kind": "user",
    "methods": {},
    "version": 1
  }
}